:0B02BF00EF1FAC0670011E4C70F62211
:1002A000758080C2A0D2A1D2A2E58020E7FBC2A2C5
:0102B000222B
:0B025C007FF47E011202BFC2007F3859
:100267003000031202A0C2A0C2A18F80D2A2C2A2F4
:010277002264
:0E02B1001202A0D2A0C2A18F80D2A2C2A222AD
:1001BB007FDC7E0512026012025C12025CD200121E
:1001CB000267D2007F08120267D2007F011202671A
:0E01DB00D2007F06120267D2007F0C0202677C
:10023D00AE07AC0353060F530501ED6003430640B3
:0F024D00430680AF06D200120267AF040202B16F
:060215008B198A1A891BF7
:10021B00D200120267E4FEEEC39D5015AB19AA1A69
:10022B00A91B8E82758300120175FF1202B10E801D
:01023B00E6DC
:01023C00229F
:1001E9001006090808090600001F0A0A0A13000078
:1001F9006162636465666768696A6B6C6D6E004FFE
:0C020900505152535455565758595A0042
:10028D0010087777772E6578616D706C652E636FCA
:02029D006D00F2
:100003001201BB7BFF7A0179E97D087F401202155B
:100013007BFF7A0179F17D087F481202157BFF7A15
:100023000179F9120278AD077BFF7A0179F97F80B4
:100033001202157BFF7A027908120278AD077BFF63
:100043007A0279087FC0120215E4F5187F107E2723
:100053001202BF0518E518C3943240F0D2007F01A5
:100063001202677FF47E011202BFE4F518E4FF1267
:1000730002B10518E518C3941040F2D2007FC012F4
:100083000267E4F5187F011202B10518E518C3945D
:100093001040F2E4F5187F107E271202BF0518E521
:1000A30018C3943240F0D2007F011202677FF47EBE
:1000B300011202BF7B007A007908120278AD077B38
:1000C300007A0079087F90120215D2007F1812027D
:1000D30067E4F5187FD07E071202BF0518E518C341
:0600E300941440F080E4DB
:030000000200E912
:0C00E900787FE4F6D8FD7581200201301C
:10017500BB010CE58229F582E5833AF583E022503F
:1001850006E92582F8E622BBFE06E92582F8E22289
:0D019500E58229F582E5833AF583E49322A3
:10027800E4FFFE1201A2600C0FEF70010E09E97095
:05028800F20A80EF22E4
:1000F500020003E493A3F8E493A34003F68001F21E
:1001050008DFF48029E493A3F85407240CC8C3330B
:10011500C4540F4420C8834004F456800146F6DFDA
:10012500E4800B010204081020408090028DE47EDB
:10013500019360BCA3FF543F30E509541FFEE493CF
:10014500A360010ECF54C025E060A840B8E493A396
:10015500FAE493A3F8E493A3C8C582C8CAC583CAC1
:10016500F0A3C8C582C8CAC583CADFE9DEE780BE79
:01029F00005E
:1001A200BB010689828A83E0225002E722BBFE025B
:0901B200E32289828A83E493228E
:00000001FF
