:0B02BD00EF1FAC0670011E4C70F62213
:10029E00759080C2A1D2A0D2A2E59020E7FBC2A2A7
:0102AE00222D
:0B025A007FF47E011202BDC2007F385D
:1002650030000312029EC2A1C2A08F90D2A2C2A2E8
:010275002266
:0E02AF0012029ED2A1C2A08F90D2A2C2A222A1
:1001B9007FDC7E0512025E12025A12025AD2001226
:1001C9000265D2007F08120265D2007F0112026522
:0E01D900D2007F06120265D2007F0C02026582
:10023B00AE07AC0353060F530501ED6003430640B5
:0F024B00430680AF06D200120265AF040202AF75
:060213008B198A1A891BF9
:10021900D200120265E4FEEEC39D5015AB19AA1A6D
:10022900A91B8E82758300120173FF1202AF0E8023
:01023900E6DE
:01023A0022A1
:1001E7001006090808090600001F0A0A0A1300007A
:1001F7006162636465666768696A6B6C6D6E006FE0
:0C020700707172737475767778797A00E4
:10028B0010087777772E6578616D706C652E636FCC
:02029B006D00F4
:100003001201B97BFF7A0179E77D087F4012021361
:100013007BFF7A0179EF7D087F481202137BFF7A19
:100023000179F7120276AD077BFF7A0179F77F80BA
:100033001202137BFF7A027906120276AD077BFF69
:100043007A0279067FC0120213E4F5187F887E13C3
:100053001202BD0518E518C3943240F0D2007F01A7
:100063001202657FF47E011202BDE4F518E4FF126B
:1000730002AF0518E518C3941040F27FC012026561
:10008300E4F5187F011202AF0518E518C394104078
:10009300F2E4F5187F887E131202BD0518E518C334
:1000A300943240F0D2007F011202657FF47E011288
:1000B30002BD7B007A007908120276AD077B007AD5
:1000C3000079087F90120213D2007F18120265E4B0
:1000D300F5187FD07E071202BD0518E518C39414E6
:0400E30040F080E485
:030000000200E714
:0C00E700787FE4F6D8FD75812002012E20
:10017300BB010CE58229F582E5833AF583E0225041
:1001830006E92582F8E622BBFE06E92582F8E2228B
:0D019300E58229F582E5833AF583E49322A5
:10027600E4FFFE1201A0600C0FEF70010E09E97099
:05028600F20A80EF22E6
:1000F300020003E493A3F8E493A34003F68001F220
:1001030008DFF48029E493A3F85407240CC8C3330D
:10011300C4540F4420C8834004F456800146F6DFDC
:10012300E4800B010204081020408090028BE47EDF
:10013300019360BCA3FF543F30E509541FFEE493D1
:10014300A360010ECF54C025E060A840B8E493A398
:10015300FAE493A3F8E493A3C8C582C8CAC583CAC3
:10016300F0A3C8C582C8CAC583CADFE9DEE780BE7B
:01029D000060
:1001A000BB010689828A83E0225002E722BBFE025D
:0901B000E32289828A83E4932290
:00000001FF
