:10000300E6B7B1E59CB3E5B882E699B6E88194E832
:10001300AEAFE794B5E5AD90004A4C58313238366F
:1000230034432C3132382A363400E9AB98E59381D6
:10003300E8B4A8EFBC8CE5889BE58FA3E7A291EF1A
:10004300BC8100E8AF9AE4BFA1E69C8DE58AA1E6F6
:100053008C81E7BBADE7BB8FE890A500E6ACA2E8D7
:10006300BF8EE4BDBFE794A83132383634432D3117
:100073000000000000000000000C0000000E000162
:1000830080070FFFC0038FFFC00380000003000041
:1000930000000000000000002000000070033FFF8C
:1000A300F87F8070003380F0000300E0000301C09C
:1000B30000030186000303070003070380030E0107
:1000C300C0031FFFE0031FFCE0030E00E00F8000EE
:1000D300403DC0000078F00000707FC1FC201FFF8E
:1000E300F80003FFF0000000000000000000000023
:1000F30000000000000000000000C0000000E0005D
:10010300E001E3FFF00383000003000000060000AA
:10011300000C6000003870000020E0003000EFFFAA
:10012300F801CFFFFC03800E0003C00E0007C00ED2
:10013300000F800E001D800E0031800E0061800EC6
:100143000001800E0001800E0001800E0001800E70
:100153000001800E0001800E0001800E000181FE6F
:100163000001807C0001003C000000000000000052
:10017300000000000000000000000000007FF03CD1
:1001830078181C181C180C180C181C181C18781F2D
:10019300F019C019E018E018E018701870187818F2
:1001A3003818383C3C7E1E000000000000000000B0
:1001B30000000000000000000000000000FC3E788A
:1001C3001C30083008300830083008300830083058
:1001D3000830083008300830083008300830083854
:1001E3001838181E700FE000000000000000000027
:1001F30000000000000000000000000000F83E784E
:100203001C3C083C082E082E082F082708278823A3
:100213008823C821C821E820E820F8207820782006
:100223003820387018F818000000000000000000A3
:10023300000000000000000000000000001FF803A1
:10024300C001800180018001800180018001800163
:100253008001800180018001800180018001800193
:1002630080018003C01FF8000000000000000000B0
:100273000000000000000000000000000007F80E6E
:10028300781C3838183018700870007000600060EF
:100293000060006000607E703C7018701830183881
:1002A3001818381E7807F000000000000000000056
:1002B30000FFFFFFFFFFFFFFFFFFFFFFFFFFFFFF4A
:1002C300FF800000000000000000000000000000AC
:1002D300018000000000000000000000000000009A
:1002E300018000000000000000000000000000008A
:1002F300018000000000000000000000000000007A
:100303000180000000000000000000000000000069
:100313000181FC01110100800040201DF812000240
:100323000181047EA0BF80807FE02115081207FFB2
:100333000181FC2440010FF80087FF95082100028A
:1003430001810425F009088803004015F8210FFAFC
:100353000181FC3C438908880200FE1908408002A1
:100363000180002440BF0FF8FFF18215F88843E2B3
:100373000187DF3FF88908880202FE154908222217
:1003830001845124408908880204821550100222F6
:100393000187DF2EA0A90FF80200FE1D201203E241
:1003A30001845174A0C940820200821110210222EB
:1003B3000187DF051088C08202008211487F800A0E
:1003C300018451060808407E0600861184208004BB
:1003D3000180000000000000000000000000000099
:1003E3000180420FE0000000000000000000000058
:1003F3000187EA0820000000000000000000000060
:1004030001814A0820000FB86E1070E0E087800871
:100413000187EA0FE0000210243089112188801837
:1004230001814A0000000210241089120290000882
:1004330001814A7FF8000210181008A2C490000836
:100443000182460401800210181010E324903F0833
:100453000184200FE1800210181021122890000857
:100463000180200020000210241041122790000870
:100473000183FE002180021124108112208880084C
:10048300018020024180123F7638F8E1C1C7001C89
:10049300018FFF0180001C0000000000000000002D
:1004A30001800000000000000000000000000000C8
:1004B30001812802001000400200880000000000B3
:1004C3000181280200080FFE7FF1080000000000F0
:1004D3000187FE3FF3FFC8024403CF041C380070BA
:1004E30041812822104210045FE2510C2244009003
:1004F300C187FF22104207F0440261042244210114
:100503004184212210220020490251040228A962B9
:10051300418BFE3FF02400405FE3C904043871922D
:100523004182242210141FFE41024904084471141D
:100533004182240200080040410241041044A913EF
:10054300C1822402001400405FF2410420442110C0
:1005530041822C02006300408103C50E3E3800E057
:10056300E18020020380C0C081024200000000003D
:1005730001800000000000000000000000000000F7
:1005830001810801000000200000000000000000BD
:100593000181087F907F0020000000000000000020
:1005A30001810812204100200001C3801F1C0000AC
:1005B3000181C81240411FFE0002244012220000A4
:1005C30001824812907F0020000220420222000094
:1005D30001824C7F204804200002218A8222F9F004
:1005E30001858B124048022060026047042254A810
:1005F30001808912884401206001A047042254A885
:1006030001810812108400200000204A842254A88B
:10061300018208122082002060024442042254A86E
:10062300018408224101002060038380041CD7ACAD
:10063300018808428200C060000000000000000042
:100643000180000000000000000000000000000026
:100653000180000000000000000000000000000016
:100663000180000000000000000000000000000006
:1006730001800000000000000000000000000000F6
:1006830001800000000000000000000000000000E6
:1006930001800000000000000000000000000000D6
:1006A30001FFFFFFFFFFFFFFFFFFFFFFFFFFFFFF55
:0106B300FF47
:0B0A39007F367E00120A7B7F0A7E00E1
:100A4400E4FDFCC3ED9FEE6480F8EC6480985015DF
:100A5400E4FBFA0BBB00010ABA03F8BBDEF50DBDDB
:050A640000010C80DE22
:010A6900226A
:100A9200E4FDFCC3ED9FEE6480F8EC648098501591
:100AA200E4FBFA0BBB00010AEB64024A70F50DBDD0
:050AB20000010C80DED4
:010AB700221C
:0E0B2C00E5A030E00280F97F147E00120A443A
:010B3A002298
:100B1C00C2B27590FFE5906006D2B1D2B0C2B022DD
:100A6A00E50F247FFFE4350EFEE5172FFFE5163E5E
:010A7A00FE7D
:100A7B00120B1CC2B2C2B18F90D2B07F057E001296
:070A8B000A92C2B0020A92B8
:0D0AB800851382851283E493FF3395E0FEE1
:0E0AC500120B1CD2B2C2B18F90D2B0C2B022BE
:1009FE007F367E00120A7B900000E5822480FFE4A1
:100A0E003583FE120A7B7F807E00120A7BE4FDFC9A
:100A1E00E4FFFE120AC50DBD00010CED64204C7002
:0A0A2E00EFA3E5826420458370D039
:010A3800229B
:100B07007F307E00120A7B7F017E00120A7B7F0AFC
:050B17007E00020A440B
:060991007C007F017E00E6
:0C0997008E0E8F0F8C108D118A128B13A6
:1009A300120A39E4F514F515E50F247FFFE4350E3B
:1009B300FEE5152FFFE5143EFE120A7BE511247FA9
:1009C300FFE43510FE120A7BE4FDFC8513828512D9
:1009D30083120ABE0513E513700205120DBD000153
:1009E3000CED64044C70E40515E51570020514C3A1
:0A09F3009420E5146480948040AE67
:0109FD0022D7
:0A091C007A017BF47C007F017E006D
:0C0926008E0E8F0F8C108D118A128B1317
:100932007F367E00120A7BE4F514F515E50F247F5D
:10094200FFE4350EFEE5152FFFE5143EFE120A7B8D
:10095200E511247FFFE43510FE120A7BE4FDFC85DD
:100962001382851283120ABE0513E5137002051263
:100972000DBD00010CED64024C70E40515E5157027
:0E098200020514C39420E5146480948040AEF6
:010990002244
:0C07C1008E0E8F0F8C108D118A128B137E
:1007CD00120A39E4F516F517120A6AE511247FFFAE
:1007DD00E43510FE120A7BE4F514F515120AB8057E
:1007ED0013E51370020512F582120ABB0513E5130A
:1007FD00700205120515E51570020514C39408E580
:10080D00146480948040D50517E51770020516C352
:10081D009420E5166480948040AE120A39E4F516F2
:10082D00F517120A6AE5112487FFE43510FE120A46
:10083D007BE4F514F515120AB80513E513700205DE
:10084D0012F582120ABB0513E51370020512051588
:10085D00E51570020514C39408E514648094804076
:10086D00D50517E51770020516C39420E5166480AB
:04087D00948040AE75
:010881002254
:100AD3007F30120A3B7F01120A3D7F06120A3D7FD7
:0B0AE3000C120A7B7F0A7E00020A440E
:100882007514FF75150075161C7F027B087A007DB2
:05089200017C007E0066
:0C0897008E0E8F0F8A128B138D828C83C3
:1008A300E4FD7F30FE120A3D120A44E50FC4F854FA
:1008B3000FC868FFE50EC454F048FEEF2470FFE450
:1008C3003EFEE58224FFFDE58334FFCD2FFFED3EA1
:1008D300FE120A7BE4FDEDC39513E5126480F87400
:1008E30080985034AB14AA15A916120AEEFF7E00A5
:1008F300120AC574012516F516E43515F515AB1462
:10090300FAA916120AEEFF120AC574012516F51686
:08091300E43515F5150D80BE59
:01091B0022B9
:1006B400D2B4120AD3120B077A027BB47D017C00F8
:1006C4007F017E001207C1120B2C120B077514FF59
:1006D4007515007516037F0112088D1208827514B2
:1006E400FF75150075162D7B087A007D097C007F47
:1006F400017E001208977514FF7515007516467B68
:10070400087A007D097C007F027E00120897120B94
:100714002C120B071209FE120B077514FF75150036
:1007240075165F7B087A007D017C007F017E0012D4
:1007340008971208827514FF75150075162D7B082D
:100744007A007D097C007F017E001208977514FFF2
:100754007515007516467B087A007D097C007F02BA
:100764007E00120897120B2C7A007B747D0112090B
:10077400917A007BF47D03120991120B2C1209FE6D
:100784007A017B747D011209207A017BB47D021207
:1007940009207D0312091C7D0412091C7A027B3492
:1007A4007D051209207A017BF47D061209207A0264
:0D07B4007B747D07120920120B2C0206B980
:03000000020B3BB5
:0C0B3B00787FE4F6D8FD7581170206B43F
:100AEE00BB010689828A83E0225002E722BBFE0206
:090AFE00E32289828A83E4932239
:00000001FF
