:1001C2008F0DC292C2907F327E0012023BC2917F9B
:1001D200327E0012023B850DA07F327E0012023B6E
:0C01E200D2927F327E0012023BC29222B9
:1001EE008F0DC292D2907F327E0012023BC2917F5F
:1001FE00327E0012023B850DA07F327E0012023B42
:0C020E00D2927F327E0012023BC292228C
:100165007F381201C27FF47E0112023B7F0C12011F
:10017500C27FF47E0112023B7F061201C27FF47E2C
:100185000112023B7F011201C27FF47E0102023B94
:080195008D088B098A0A890B11
:10019D001201C2E4F50CE50CC395085017AB09AA82
:1001AD000AA90B850C827583001200E1FF1201EE86
:0401BD00050C80E2CB
:0101C100221B
:0B023B00EF1FAC0670011E4C70F62295
:100127001006090808090600001F0A0A0A1300003A
:1001370049206C6F7665204D435521004C4344316F
:100147003630322054657374210057656C636F6DC8
:0E0157006520746F206D7920626C6F67210047
:100003001201657BFF7A0179277D087F40120195F4
:100013007BFF7A01792F7D087F481201957BFF7A58
:1000230001793712021AAD077BFF7A0179377F8096
:100033001201957BFF7A01794312021AAD077BFF08
:100043007A0179437FC0120195E4F50E7F107E2774
:1000530012023B050EE50EC3943240F07F011201FC
:10006300C27FF47E0112023BE4F50EE4FF1201EEBF
:10007300050EE50EC3941040F27FC01201C2E4F5F1
:100083000E7F011201EE050EE50EC3941040F2E45B
:10009300F50E7F107E2712023B050EE50EC3943248
:1000A30040F07F011201C27FF47E0112023B7BFF0D
:1000B3007A01795112021AAD077BFF7A0179517FD8
:1000C300901201957F181201C2E4F50E7F107E276E
:0E00D30012023B050EE50EC3941440F080E6C9
:0300000002022FCA
:0C022F00787FE4F6D8FD75810E02000314
:1000E100BB010CE58229F582E5833AF583E02250D4
:1000F10006E92582F8E622BBFE06E92582F8E2221E
:0D010100E58229F582E5833AF583E4932237
:10021A00E4FFFE12010E600C0FEF70010E09E97087
:05022A00F20A80EF2242
:10010E00BB010689828A83E0225002E722BBFE02EF
:09011E00E32289828A83E4932222
:00000001FF
