:10011600E4FDFCC3ED9FEC9E50070DBD00010C8075
:01012600F2E6
:0101270022B5
:10012800759080C2A1D2A0D2A2E59020E7FBC2A21E
:0101380022A4
:0700D000120116C2007F3887
:1000D700300003120128C2A1C2A08F90D2A2C2A2EF
:0100E70022F6
:0E013900120128D2A1C2A08F90D2A2C2A2228F
:1000B600AE0753060F530501ED7005EE248080034D
:0A00C600EE24C0FFD2001200D72282
:10004B007FDC7E051200D07FF47E011200D07FF49E
:10005B001200D0D2001200D7D2007F0C1200D7D2E0
:10006B00007F061200D7D2007F381200D77FF41220
:0E007B000116C2007F011200D77FF4020116A9
:0A015300AC031200B6AF040201393C
:0A0003008F088D098B0A8A0B890C07
:10000D00E4F50DF50EAB0AAA0BA90C850E827583CE
:10001D0000120089FB6024AD09AF08120153050DD4
:10002D000508E508C39410400EE4F5080509E50937
:0D003D0094024003E4F509050E80CAAF0DE2
:01004A002293
:100100004C4344313630322052554E4E494E4720F2
:06011000544553540A009F
:1000E80012004B7BFF7A017900E4FDFF1200037FC9
:0800F800887E1312011680FE40
:03000000020147B3
:0C014700787FE4F6D8FD7581200200E806
:10008900BB010CE58229F582E5833AF583E022502C
:1000990006E92582F8E622BBFE06E92582F8E22276
:0D00A900E58229F582E5833AF583E4932290
:00000001FF
