:0300000002014AB0
:0C014A00787FE4F6D8FD75810902010BF6
:10006F00202020484F542D353100B5A5C6ACBBFA22
:10007F00BFAAB7A2B0E500202020202020202020FA
:0F008F00200020202020B6ABC1F7B5E7D7D30063
:07009E0012012A7F327E00EF
:1000A500E4FDFCC3ED9FEC9E5015E4FBFA0BBB0091
:0F00B500010AEB640A4A70F50DBD00010C80E4EE
:0100C4002219
:0F000300120012EB54F0FF120012EBC454F0FF86
:10001200E4FDFCAE05EFA806088002C333D8FC302D
:10002200E704D2B18002C2B1C2B0D2B00DBD0001AC
:070032000CED64084C70DCCA
:0100390022A4
:10012A00AB07D2B27FF81200037F027E000200A55D
:10013A00AB07D2B27FFA1200037F027E000200A54B
:1000C500C2B37F647E001200A5D2B37F207E4E129C
:1000D50000A57F3012009E7F0C12012A7F327E0020
:0300E5000200A571
:1000E8008E088F09850982850883E493FFD39400DD
:1000F800401012013A0509E509700205081200A12D
:0301080080E22270
:10003A007F0312009E7F8112012A7E007F6F1200C9
:10004A00E87F9112012A7E007F791200E87F8912E7
:10005A00012A7E007F861200E87F9812012A7E001C
:05006A007F910200E897
:10010B00C2B47F017E001200A51200C57F0A7E00DB
:0F011B001200A512003A7F887E131200A580F40F
:00000001FF
