:1000030031323836342CE5B8A6E4B8ADE69687E548
:10001300AD97E5BA93003136583136E7AE80E4BD8B
:1000230093E6B189E5AD97E5BA932C00E688963857
:10003300583136E782B9E998B541534349492C0011
:10004300E68896357838E782B9E998B5415343494C
:1000530049E7A0810000FE8242A29E8A82868AB27C
:100063006202FE0000007F40407F40404040407FEE
:1000730040407F0000808080BFA5A5A53FA5A5A522
:10008300BF808080007F24243F24247F007F24249A
:100093003F24247F00000000000000000000000057
:1000A30000000000000000008080C0C0C0C0E0600D
:1000B300E0E0E0E060606060606060E0E0E0E0C0DD
:1000C300C0C0C080800000000000000000000000ED
:1000D300000000000000000000000000000000001D
:1000E300000000000000000000000000000000000D
:1000F30000000000000000000000000000000000FD
:1001030000000000000000000000000000000000EC
:100113000000000000000000000000000080C0E0BC
:100123007038181C0C0E0703030181E0781C0E07BE
:1001330003010000000000000000000000010307AD
:100143000E1C79E18303070E0C1C183870E0C08085
:10015300000000000000000000000000000000009C
:100163008080C0C0C0C0E0E0E0E0E0E0E0E0E0E0CC
:10017300E0E0E0E0E0E0E0E0E0E0E0E0E0E0E0E07C
:10018300E0E0E0E0E0E0E0E0C0C0C0C0C08000002C
:10019300000000000000000080F0781E070381804B
:1001A300C0C0C0E060606070F0FE3F1918181818F6
:1001B30018181818181818181818181818181818BC
:1001C300181838313FFEF06060E0C0C0C080810382
:1001D300071E78F0800000000000000000C0FCFF54
:1001E3007F070F1F3D7971F0E0C080000000000021
:1001F30000000000000000000000000000000000FC
:10020300000000008080C0E0F071793D1F0FFFFE09
:10021300FC000000000080FEFFF91C0E0703030131
:1002230001000000000000FFFF00000000000000CC
:1002330000000000000000000000000000000000BB
:10024300000000000000FFFF0000000001010303A5
:10025300070E1CF9FFFE00000000000000FFFFFF77
:1002630000000000000000000103070F0E9EFCF8D1
:10027300F0E0C0C080000000000080C0C0E0F0F8E3
:10028300F8FC9E0F07030301000000000000FFFFBE
:10029300FF0000000000003FFFDF3870E0C0C080B7
:1002A30080000000000000FFFF00000000000000CD
:1002B300000000000000000000000000000000003B
:1002C300000000000000FFFF000000008080C0C0AD
:1002D300E07038DFFF3F000000000000007FFFFFF9
:1002E300000000000080C0E0F0783C1E0F0703010F
:1002F30000010103070F1E1E0E0F0703010100017A
:100303000103070F1E3C78F0E0C080000000FFFFF0
:10031300FF0000000000000000070F3C70E0C181F7
:10032300030303070606060E0F7FFC981818181818
:10033300181818181818181818181818181818183A
:1003430018180C8CFC7F0F06060703030381C1E01A
:10035300703C0F07000000000000000000000F1FAA
:100363003F7CFCFEEFE7E3E1E0E0E0E0E0E0E0E03B
:10037300E0E0E0E0E0E0E0E0E0E0E0E0E0E0E0E07A
:10038300E0E0E0E0E0E0E0E0E1E3E7EFFE7C3F1FF8
:100393000F00000000000000000000000000010347
:1003A300070E0C1C18387060E0C0C1879EB8F0E0DF
:1003B300C080000000000000000000000080C0E0DA
:1003C300F0B8DEC7E1607038181C0C0E070301009B
:1003D300000000000000000000000000000000001A
:1003E300000000000000000000000000000000000A
:1003F30000000000000000000000000000000000FA
:1004030000000000000000000000000000000000E9
:1004130000000000000000000000000000000000D9
:1004230000000000000000000000010101010303BF
:100433000303030707070707070707070303030167
:1004430001010100000000000000000000000000A6
:100453000000000000000000000000000000000099
:100463000000000000000000000000000000000089
:100473000000000000000000000000000000000079
:100483000000000000000000000000000000000069
:05049300000000000064
:060C3D0004380000000075
:070B7200120BC97F057E0094
:100B7900E4FDFCC3ED9FEE6480F8EC6480985015A9
:100B8900E4FBFA0BBB00010AEB646E4A70F50DBD7C
:050B990000010C80DEEC
:010B9E002234
:100BF200E4FDFCC3ED9FEE6480F8EC648098501530
:100C0200E4FBFA0BBB00010AEB64014A70F50DBD6F
:050C120000010C80DE72
:010C170022BA
:0C0C300030A00280FB7F587E02120B797E
:010C3C002295
:100BC900C291C2B0E4FDC2B2EF30E704D2B18002F3
:100BD900C2B1D2B2EF7801088005C333CE33CED883
:080BE900F9FF0DBD08E0D291F7
:010BF10022E1
:060B430012062BFF7E00EC
:100B4900C291D2B0E4FDC2B2EF30E704D2B1800263
:100B5900C2B1D2B2EF7801088005C333CE33CED803
:080B6900F9FF0DBD08E0D29177
:010B71002261
:10080200C2907F647E00120B79D290120B797FE244
:10081200120B727F2C120BC97F327E00120B797F72
:100822002E120BC97F327E00120B797F2F120B72B0
:100832007F23120BC97F817E00120BC97F287E00A5
:10084200120BC97FA27E00120BC97FC87E00120B59
:10085200C97FA07E00120BC97F407E00120BC97FA8
:06086200AF7E00020BC98D
:060A9E00FFE433FE7C00C2
:100AA400AB05AA04EB1B70011AEF24AFFFE43EFE72
:100AB400120BC9EAC4F854F0C8EBC4540F48540FDD
:100AC4002410FFE433FE120BC97E00EB540FFF0227
:020AD4000BC94C
:100B9F00E4FCEC24B0FFE433FE120BC97F107E009F
:100BAF00120BC9E4FFFE120BC9E4FBE4FFFE120BAC
:090BBF00490BBB84F60CBC09D9FA
:010BC800220A
:060922008B088A09890A16
:10092800E4F50DF50EE50E2401FFE4350DFE7D011D
:100938007C00120AA4E4F50BF50CAB08AA09A90A75
:10094800120B437401250AF50AE43509F509050C6B
:10095800E50C7002050BC39480E50B940040DB05A1
:100968000EE50E7002050DC39408E50D940040B520
:01097800225C
:0A0868008F158D168B178A18891959
:10087200E4F51CF51D7E00E51D2515FFEE351CFE79
:10088200AD167C00120AA4E4F51AF51BAB17AA18E0
:10089200A919120B4374012519F519E43518F51835
:1008A200051BE51B7002051AC39410E51A9400405B
:1008B200DB051DE51D7002051CC39402E51C9400B6
:0208C20040B341
:0108C4002211
:0A08C5008F1E8D1F8B208A218922CF
:1008CF00E4F525F5267E00E526251EFFEE3525FEEF
:1008DF00AD1F7C00120AA4E4F523F524AB20AA2156
:1008EF00A922120B4374012522F522E43521F521AB
:1008FF000524E52470020523C39408E523940040E2
:10090F00DB0526E52670020525C39402E525940034
:02091F0040B3E3
:0109210022B3
:060AD6008B338A348935E0
:100ADC007E007C00120AA4E4F536F537AB33AA3459
:100AEC00A935120B4374012535F535E43534F5344D
:100AFC000537E53770020536C39406E53694004099
:010B0C00DB0D
:010B0D0022C5
:090B0E00FEE4FD7808FC1206D299
:020B17008F1439
:100B1900E4F9C2947F0A7E00120BF2E51430E7046F
:100B2900D2928002C292E51425E0F514D2947F0A8C
:090B39007E00120BF209B908D983
:010B42002290
:100C1800E4FFFED293C294EF25E0FF3093030F80E8
:070C280000D2940EBE08EC9F
:010C2F0022A2
:080A57008F118E108D0F8C0E23
:100A5F00C2957F03120B17E4FFFEE50FFDE478103C
:100A6F00120B13E4FFE510120B0EE511FF120B171B
:100A7F00E4F9E92512AD13120A9E120C18AB077E8A
:0E0A8F0000120B490CBC10F209B902E6D29518
:010A9D002236
:080979008F118E108D0F8C0E02
:10098100C2957F03120B17E4FFFEE50FFDE4FC782F
:10099100101206D2120B17E4FFE510120B0EE5112F
:1009A100FF120B17E4F9E92512AD13120A9E120C7E
:1009B10018AB077E00120B490CBC08F209B902E61C
:0209C100D295CD
:0109C3002211
:080A0F008F2A8E298D288C2707
:100A1700C2957F03120B17E4FFFEE528FDE4FC787F
:100A2700101206D2120B17E4FFE529120B0EE52A66
:100A3700FF120B17AF2B7E00AD2C7C00120AA412FD
:0F0A47000C18AB077E00120B490CBC05F2D295C0
:010A5600227D
:040498007BFF7D0168
:0A049C008F088D098B0A8A0B890C6A
:1004A600E4F50DAB0AAA0BA90C850D827583001223
:1004B6000644FFD39400500302062AEF94B0404648
:1004C600EFD394F75040850D82758300A31206443E
:1004D600C394A14031850D827583001206442450D1
:1004E600FFE434FFFE7C007D5E120671E48F3B8ED6
:1004F6003AF539F538850D82F583A312064424AD05
:10050600FFE43402805FAB0AAA0BA90C850D827545
:100516008300120644FFC394A150030205ABEFD338
:1005260094A340030205AB850D82758300A31206D2
:1005360044C394A1406F850D82758300120644243E
:100546005FFFE434FFFE7C007D5E120671E48F3BA4
:100556008E3AF539F538850D82F583A312064424C3
:100566005FFFE434FFFEE4FDE53B2FF53BE53A3E55
:10057600F53AED3539F539EC3538F538AF3BAE3A65
:10058600AD39FCE47B20FAF9F81206838F3B8E3AEC
:100596008D398C38850812850913120A57050D0501
:1005A6000D74108073AB0AAA0BA90C850D82758396
:1005B60000120644FFC394204065EFD3947E505F3B
:1005C600850D8275830012064424E0FFE434FFFEA5
:1005D600E48F3B8E3AF539F538AD39AC387B10FAF5
:1005E600F9F81206838F3B8E3A8D398C38E53B2419
:1005F60080F53BE53A34CFF53AE5393403F539E48D
:100606003538F538AF3BAE3AAD39FC850812850969
:1006160013120979050D74082509F5090204A905BF
:040626000D0204A914
:01062A0022AD
:0A06E5008F2D8D2E8B2F8A30893166
:1006EF00E4F532AB2FAA30A931853282758300121F
:1006FF000644FFD39400406EEF94204064EFD394F0
:10070F007E505E85328275830012064424E0FFE43A
:10071F0034FFFEE48F3B8E3AF539F538AD39AC38FE
:10072F007B08FAF9F81206838F3B8E3A8D398C3895
:10073F00E53B24C0F53BE53A34BFF53AE5393403E0
:10074F00F539E43538F538AF3BAE3AAD39FC852D88
:10075F002B852E2C120A0F05327406252EF52E80AE
:06076F008205320206F2D1
:010775002261
:1009C400120802120B9F7BFF7A0079981209227F8A
:1009D400D07E07120B797A0079037F011204987A8A
:1009E4000079197F031204987BFF7A00792F7D0127
:1009F4007F0512049C7BFF7A0079437D017F0712F7
:0B0A0400049C7FA07E0F120B7980B5D0
:030000000207767E
:0C077600787FE4F6D8FD75813B0207BDDA
:10062B00BB010689828A83E0225002E722BBFE02CD
:09063B00E32289828A83E4932200
:10064400BB010CE58229F582E5833AF583E022506B
:1006540006E92582F8E622BBFE06E92582F8E222B5
:0D066400E58229F582E5833AF583E49322CF
:10067100EF8DF0A4A8F0CF8CF0A428CE8DF0A42E9D
:02068100FE2257
:10068300E88FF0A4CC8BF0A42CFCE98EF0A42CFC16
:100693008AF0EDA42CFCEA8EF0A4CDA8F08BF0A494
:1006A3002DCC3825F0FDE98FF0A42CCD35F0FCEBF3
:1006B3008EF0A4FEA9F0EB8FF0A4CFC5F02ECD39B8
:0F06C300FEE43CFCEAA42DCE35F0FDE43CFC2225
:1006D200E8600FECC313FCED13FDEE13FEEF13FF06
:0306E200D8F1222A
:100782000209C4E493A3F8E493A34003F68001F2C0
:1007920008DFF48029E493A3F85407240CC8C33378
:1007A200C4540F4420C8834004F456800146F6DF47
:1007B200E4800B0102040810204080900C3DE47E8E
:1007C200019360BCA3FF543F30E509541FFEE4933C
:1007D200A360010ECF54C025E060A840B8E493A303
:1007E200FAE493A3F8E493A3C8C582C8CAC583CA2E
:1007F200F0A3C8C582C8CAC583CADFE9DEE780BEE6
:010C430000B0
:00000001FF
